:10000000192CFF3FFF3FFF3F3F3003138316920041
:1000100004308312920083168C0183128C018316A4
:100020008D0183128D0183160C148230FB00FF308A
:10003000FA00FB0B1C281F28FA0B1C2819288730F4
:10004000FA00FA0B21280000080003138312920122
:1000500091018230FB00FF30FA00FB0B302833287F
:10006000FA0B30282D288730FA00FA0B35280000CB
:1000700004200800031383122208643A031D452854
:100080003F309B003C309D00632822084B3A031D03
:100090004E282F309B003C309D0063282208323AC6
:1000A000031D57281F309B003C309D006328220809
:1000B000193A031D60280F309B003C309D006328D7
:1000C0009B010C309D000800031383122208643A40
:1000D000031D6F283F3095003C3097008D28220883
:1000E0004B3A031D78282F3095003C3097008D281F
:1000F0002208323A031D81281F3095003C309700BA
:100100008D282208193A031D8A280F3095003C30AB
:1001100097008D2895010C309700080002300313DA
:100120008312FC00FF30FB00FF30FA00FC0B992823
:10013000A028FB0B9C289F28FA0B9C28992896281E
:100140000630FB00FF30FA00FB0BA728AA28FA0BA9
:10015000A728A4280A30FA00FA0BAC28FF3083162F
:10016000860087018312071087118710071104206A
:100170000230FC00FF30FB00FF30FA00FC0BC1280E
:10018000C828FB0BC428C728FA0BC428C128BE28DE
:100190000630FB00FF30FA00FB0BCF28D228FA0B09
:1001A000CF28CC280A30FA00FA0BD4280800031311
:1001B0008312A101200821020318C82A252000303B
:1001C000831286180130F1007108003A031D3829A6
:1001D000003006190130F1007108003A031D38297A
:1001E000003086190130F1007108003A031D3829EA
:1001F0004130FB00FF30FA00FB0BFF280229FA0B0D
:10020000FF28FC28C330FA00FA0B04290000071469
:100210003230A2003A2087153230A20064208230AA
:10022000FB00FF30FA00FB0B16291929FA0B1629DF
:1002300013298730FA00FA0B1B29000000308618BA
:100240000130F1007108003A031D3729003006190A
:100250000130F1007108003A031D3729003086197A
:100260000130F1007108003A031D37291E29C72A01
:10027000003006190130F1007108013A031D6F29A1
:100280004130FB00FF30FA00FB0B47294A29FA0BEB
:1002900047294429C330FA00FA0B4C290000071003
:1002A0006430A2003A2087116430A20064208230BA
:1002B000FB00FF30FA00FB0B5E296129FA0B5E2977
:1002C0005B298730FA00FA0B632900000030061919
:1002D0000130F1007108013A03196629C72A00307C
:1002E00086180130F1007108013A031DC72900305A
:1002F00006190130F1007108003A031DC7290030CA
:1003000086190130F1007108003A031DC7294130F8
:10031000FB00FF30FA00FB0B8E299129FA0B8E2986
:100320008B29C330FA00FA0B9329000007103230F2
:10033000A2003A2087116430A20064208230FB00C2
:10034000FF30FA00FB0BA529A829FA0BA529A22941
:100350008730FA00FA0BAA29000000308618013015
:10036000F1007108013A031DC62900300619013059
:10037000F1007108003A031DC629003086190130CA
:10038000F1007108003A031DC629AD29C72A0030C3
:1003900086180130F1007108003A031D1F2A003051
:1003A00006190130F1007108003A031D1F2A0030C0
:1003B00086190130F1007108013A031D1F2A4130EE
:1003C000FB00FF30FA00FB0BE629E929FA0BE629CE
:1003D000E329C330FA00FA0BEB2900000710643060
:1003E000A2003A2087113230A20064208230FB0044
:1003F000FF30FA00FB0BFD29002AFA0BFD29FA2930
:100400008730FA00FA0B022A00000030861801300B
:10041000F1007108003A031D1E2A00300619013050
:10042000F1007108003A031D1E2A003086190130C0
:10043000F1007108013A031D1E2A052AC72A00305F
:1004400086180130F1007108013A031DC72A0030F7
:1004500006190130F1007108013A031DC72A003066
:1004600086190130F1007108013A031DC72A0230D4
:10047000FC00FF30FB00FF30FA00FC0B402A472A4B
:10048000FB0B432A462AFA0B432A402A3D2A063010
:10049000FB00FF30FA00FB0B4E2A512AFA0B4E2AC2
:1004A0004B2A0A30FA00FA0B532A00308618013022
:1004B000F1007108013A031DC72A00300619013006
:1004C000F1007108013A031DC72A00308619013076
:1004D000F1007108013A031DC72AA10A210820066C
:1004E000031DA82A25204130FB00FF30FA00FB0B3A
:1004F0007A2A7D2AFA0B7A2A772AC330FA00FA0B75
:100500007F2A0000831287140714071587151A30F5
:10051000FC00FF30FB00FF30FA00FC0B902A972A0A
:10052000FB0B932A962AFA0B932A902A8D2A7F3066
:10053000FB00FF30FA00FB0B9E2AA12AFA0B9E2A31
:100540009B2A5830FA00FA0BA32A0000000008008A
:100550000330FC00FF30FB00FF30FA00FC0BB12A37
:10056000B82AFB0BB42AB72AFA0BB42AB12AAE2A4E
:100570008C30FB00FF30FA00FB0BBF2AC22AFA0BBB
:10058000BF2ABC2AA130FA00FA0BC42A0000DA28DC
:100590000800003003138312061B0130F1007108BC
:1005A000003A031D1C2B4130FB00FF30FA00FB0B0F
:1005B000DA2ADD2AFA0BDA2AD72AC330FA00FA0B34
:1005C000DF2A0000871207168230FB00FF30FA0096
:1005D000FB0BEB2AEE2AFA0BEB2AE82A8730FA000B
:1005E000FA0BF02A00000030061B0130F100710800
:1005F000003A0319F32A4130FB00FF30FA00FB0BED
:10060000022B052BFA0B022BFF2AC330FA00FA0B40
:10061000072B0000871607168230FB00FF30FA0018
:10062000FB0B132B162BFA0B132B102B8730FA0016
:10063000FA0B182B00003C2B4130FB00FF30FA0076
:10064000FB0B232B262BFA0B232B202BC330FA007A
:10065000FA0B282B0000871607168230FB00FF30AC
:10066000FA00FB0B342B372BFA0B342B312B873052
:10067000FA00FA0B392B0000C92A080004204B307D
:100680008312A2003A2007101930A20064208715B7
:100690000630FC00FF30FB00FF30FA00FC0B512B52
:1006A000582BFB0B542B572BFA0B542B512B4E2B47
:1006B0001A30FB00FF30FA00FB0B5F2B622BFA0BAA
:1006C0005F2B5C2B4230FA00FA0B642B00300619CA
:1006D0000130F1007108003A0319662B25204130E2
:1006E000FB00FF30FA00FB0B762B792BFA0B762BF5
:1006F000732BC330FA00FA0B7B2B00008312871494
:100700000714071587151A30FC00FF30FB00FF3077
:10071000FA00FC0B8C2B932BFB0B8F2B922BFA0BE1
:100720008F2B8C2B892B7F30FB00FF30FA00FB0BCB
:100730009A2B9D2BFA0B9A2B972B5830FA00FA0B19
:100740009F2B000000000800003003138312861B5B
:100750000130F1007108003A031DF72B4130FB0016
:10076000FF30FA00FB0BB52BB82BFA0BB52BB22BD5
:10077000C330FA00FA0BBA2B00008716071282303A
:10078000FB00FF30FA00FB0BC62BC92BFA0BC62B64
:10079000C32B8730FA00FA0BCB2B00000030861BEE
:1007A0000130F1007108003A0319CE2B4130FB00F3
:1007B000FF30FA00FB0BDD2BE02BFA0BDD2BDA2BE5
:1007C000C330FA00FA0BE22B0000871607168230BE
:1007D000FB00FF30FA00FB0BEE2BF12BFA0BEE2B9C
:1007E000EB2B8730FA00FA0BF32B0000172C41306B
:1007F000FB00FF30FA00FB0BFE2B012CFA0BFE2B4B
:10080000FB2BC330FA00FA0B032C000087160716E7
:100810008230FB00FF30FA00FB0B0F2C122CFA0B7E
:100820000F2C0C2C8730FA00FA0B142C0000A42B90
:1008300008008E2004308312A000D720C9223E2356
:10084000033003138312A000D720A4231A2C272CD3
:02400E007A3FF7
:00000001FF
